:1000000063C0000086C0000084C000006AC4000015
:1000100068C4000066C400007CC000007AC0000014
:1000200078C0000076C0000074C0000072C00000FC
:1000300070C000006EC000006CC000006AC000000C
:10004000DBC2000066C00000D8C1000008C200008A
:1000500060C000005EC000005CC000005AC000002C
:1000600058C0000056C00000000000080002010057
:100070000003040700000000000000000102040863
:100080001020408001020408102001020408102002
:10009000040404040404040402020202020203032E
:1000A00003030303000000002300260029000000D2
:1000B0000000250028002B0000000000240027007D
:1000C0002A009E005D02A40011241FBECFEFD8E0DD
:1000D000DEBFCDBF11E0A0E0B1E0EEE0FEE002C087
:1000E00005900D92A434B107D9F722E0A4E4B1E061
:1000F00001C01D92AD34B207E1F710E0C6ECD0E0CC
:1001000003C02297FE0173D6C23CD107D1F76AD251
:1001100072C676CF26E040EB54E060E070E083E604
:1001200091E00BD140EB54E060E070E084E491E0BA
:10013000D4D460E071E083E691E043C220E043E084
:1001400062E084E491E09BC484E491E044C484E4EC
:1001500091E064D3892B81F084E491E0D2D2E091E4
:100160006301F09164018F7799270190F081E02D70
:10017000682F83E691E009940895FC01818D228D1A
:1001800090E0805C9F4F821B91098F73992708959F
:10019000FC01918D828D981731F0828DE80FF11D51
:1001A000858D90E008958FEF9FEF0895FC01918D6C
:1001B000828D981761F0828DDF01A80FB11D5D96C9
:1001C0008C91928D9F5F9F73928F90E008958FEF37
:1001D0009FEF089584E592E0892B41F080E090E064
:1001E000892B21F061D181110C9400000895FC014C
:1001F000848DDF01A80FB11DA35ABF4F2C91848DB0
:1002000090E001968F739927848FA689B7892C93E4
:10021000A089B1898C9180648C93938D848D98137F
:1002200006C00288F389E02D80818F7D8083089548
:10023000CF93DF93EC01888D8823C1F0EA89FB8995
:10024000808185FD05C0A889B9898C9186FD0EC085
:100250000FB607FCF5CF808185FFF2CFA889B98959
:100260008C9185FFEDCFCE01C2DFE8CFDF91CF913A
:100270000895CF92DF92FF920F931F93CF93DF9356
:100280001F92CDB7DEB76C0181E0D60158968C93F2
:1002900058975B969C915B975C968C915C979813B2
:1002A00007C05096ED91FC915197808185FD2DC03E
:1002B000F601038D10E00F5F1F4F0F731127F02E13
:1002C000F601848DF81210C00FB607FCF9CFD601E5
:1002D0005096ED91FC915197808185FFF1CFC60139
:1002E000698385DF6981ECCF838DE80FF11DE35AC7
:1002F000FF4F6083D6015B960C935B975296ED910E
:10030000FC915397808180620CC0D6015696ED9186
:10031000FC91579760835096ED91FC9151978081A5
:100320008064808381E090E00F90DF91CF911F91F6
:100330000F91FF90DF90CF900895BF92CF92DF9200
:10034000EF92FF92CF93DF93EC016A017B01B22E13
:10035000E889F98982E08083411581EE58076105BB
:10036000710599F060E079E08DE390E0A7019601D6
:10037000EAD42150310941095109569547953795DD
:100380002795211580E1380790F0E889F9891082D6
:1003900060E874E88EE190E0A7019601D4D4215082
:1003A0003109410951095695479537952795EC85AF
:1003B000FD853083EE85FF852083188EEC89FD89CD
:1003C000B082EA89FB89808180618083EA89FB8928
:1003D000808188608083EA89FB898081806880834E
:1003E000EA89FB8980818F7D8083DF91CF91FF90A7
:1003F000EF90DF90CF90BF9008951F920F920FB6AD
:100400000F9211242F938F939F93EF93FF93E0917B
:100410007301F09174018081E0917901F0917A018A
:1004200082FD12C0908180917C018F5F8F7320913B
:100430007D01821751F0E0917C01F0E0ED59FE4F13
:10044000958F80937C0101C08081FF91EF919F91F6
:100450008F912F910F900FBE0F901F9018951F92A4
:100460000F920FB60F9211242F933F934F935F93E8
:100470006F937F938F939F93AF93BF93EF93FF936C
:1004800083E691E0B4DEFF91EF91BF91AF919F9130
:100490008F917F916F915F914F913F912F910F902D
:1004A0000FBE0F901F90189583E691E066DE21E065
:1004B000892B09F420E0822F089510926601109292
:1004C000650188EE93E0A0E0B0E08093670190932F
:1004D0006801A0936901B0936A0186E191E090936D
:1004E00064018093630185EC90E0909370018093A8
:1004F0006F0184EC90E0909372018093710180EC25
:1005000090E0909374018093730181EC90E090935C
:1005100076018093750182EC90E09093780180934E
:10052000770186EC90E090937A01809379011092A4
:100530007C0110927D0110927E0110927F0108953E
:10054000CF92DF92EF92FF920F931F93CF93DF939F
:100550007C016A01EB0100E010E00C151D0571F053
:100560006991D701ED91FC910190F081E02DC701D7
:100570000995892B19F00F5F1F4FEFCFC801DF914D
:10058000CF911F910F91FF90EF90DF90CF90089542
:100590006115710581F0DB010D900020E9F7AD01D7
:1005A00041505109461B570BDC01ED91FC91028033
:1005B000F381E02D099480E090E0089562E271E01B
:1005C000E7CF0F931F93CF93DF93EC01E1DF8C0113
:1005D000CE01F4DF800F911FDF91CF911F910F911A
:1005E0000895089553D0FDDF95DDCAEED0E0AFDD6C
:1005F0002097E9F3EFDDFBCF1F920F920FB60F921A
:1006000011242F933F938F939F93AF93BF93809128
:10061000010290910202A0910302B0910402309174
:10062000000223E0230F2D3720F40196A11DB11DF8
:1006300005C026E8230F0296A11DB11D20930002DC
:100640008093010290930202A0930302B0930402EC
:100650008091050290910602A0910702B0910802D4
:100660000196A11DB11D8093050290930602A093EF
:100670000702B0930802BF91AF919F918F913F9174
:100680002F910F900FBE0F901F901895789484B5FE
:10069000826084BD84B5816084BD85B5826085BD7E
:1006A00085B5816085BDEEE6F0E080818160808364
:1006B000E1E8F0E010828081826080838081816047
:1006C0008083E0E8F0E0808181608083E1EBF0E00E
:1006D000808184608083E0EBF0E0808181608083B2
:1006E000EAE7F0E08081846080838081826080839B
:1006F0008081816080838081806880831092C100C6
:10070000089520914B0230914C0228173907B9F413
:100710009091090280910A02981789F0E0910902EC
:10072000F0E0E55FFD4F80812091090230E02F5F0E
:100730003F4F2F7333272093090290E008958FEFE6
:100740009FEF08951F93CF93DF93DC015C968D910B
:100750009C915D97009749F481E090E013969C93FB
:100760008E93129780E090E03BC05196ED91FC9102
:10077000529750962C915097322F30951FB75E9616
:100780004C915E9741FB772770F941FD6095F89495
:100790004081772311F0422B01C043234083EC01B9
:1007A0002197F1F748E0508160FF02C0522B01C051
:1007B00053235083EC012197F1F76695415099F747
:1007C0008081772311F0832301C0822B80831FBF98
:1007D0005C968D919C915D970197F1F781E090E097
:1007E000DF91CF911F91089520914B0230914C02DF
:1007F0002817390781F49091090280910A0298170D
:1008000051F0E0910902F0E0E55FFD4F808199270A
:1008100087FD909508958FEF9FEF089520914B02EB
:1008200030914C022817390761F480910A02209117
:10083000090290E0805C9F4F821B910960E470E0A8
:100840006FC280E090E0089520914B0230914C02FD
:100850002817390739F48FB7F89410920A021092CA
:1008600009028FBF0895E0914B02F0914C02E81706
:10087000F90769F4A389B4899C91858980958923B6
:100880008C9310924C0210924B0281E0089580E00C
:100890000895CF93DF93EC018A8D9B8D892BE9F02E
:1008A00080914B0290914C028C179D07B1F00097FC
:1008B00009F0D9DF8E8D8E7F8E8F10920A021092F2
:1008C0000902D0934C02C0934B02EB89FC898081D2
:1008D0009D89892B808381E001C080E0DF91CF91E9
:1008E00008951F920F920FB60F9211242F933F93EA
:1008F0004F935F936F937F938F939F93AF93BF9328
:10090000EF93FF93E0914B02F0914C02309709F482
:1009100051C0868DA685B785958581FF04C08C91D1
:10092000892329F447C08C91892309F043C0A38906
:10093000B4899C918589809589238C938689978930
:100940000197F1F7208D318DA685B785758558E023
:1009500040E0C9010197F1F7842F90E095958795C4
:10096000482F6C91672309F04068515091F7868DAC
:1009700081FD409580910A0290E001968F7399273E
:1009800020910902281749F0A0910A02B0E0A55F62
:10099000BD4F4C9380930A0203C0868D8160868F81
:1009A000828D938D0197F1F7A389B4898C919589F4
:1009B000892B8C93FF91EF91BF91AF919F918F9174
:1009C0007F916F915F914F913F912F910F900FBE4B
:1009D0000F901F90189527E331E0FC0131832083AD
:1009E00042CF1F93CF93DF93EC01162F6E8D669548
:1009F000617081E06827812F5ED161E0812F22D173
:100A0000812F90E0FC01E458FF4FE491E88BFC015A
:100A1000E057FF4FE491F0E0EE0FFF1FE255FF4F6C
:100A2000859194919A8B898BDF91CF911F91089535
:100A30001F93CF93DF93EC01162F60E0812F02D13B
:100A40008E8D81FD03C061E0812F35D11C87812F00
:100A500090E0FC01E458FF4FE491ED87FC01E05782
:100A6000FF4FE491F0E0EE0FFF1FEC55FF4F859133
:100A700094919F878E87DF91CF911F910895FF9268
:100A80000F931F93CF93DF93EC01F62E522F1B820F
:100A90001A8208EE13E020E030E00C831D832E83E1
:100AA0003F8387E391E0998388831F8A1E8A198E8A
:100AB000188E1B8E1A8E1D8E1C8E8E8D8E7F50FB77
:100AC00081F98E8F642FCE018CDF6F2DCE01DF91E7
:100AD000CF911F910F91FF90ABCFCF93DF93EC019C
:100AE0009A01AB011B8E1A8E198E188E1F8A1E8AD0
:100AF00060E079E08DE390E048D1C9012430310510
:100B000020F0B9016350710902C061E070E07D8F8F
:100B10006C8FEC85E63108F068C0B9017695679571
:100B20006431710518F06351710902C061E070E031
:100B30007F8B6E8B069718F0C901059702C081E084
:100B400090E0998F888FC901880F991F820F931F9A
:100B500096958795969587958D30910510F00C9711
:100B600002C081E090E09B8F8A8F20916800E8307E
:100B700050F091E0EE3008F490E081E001C0880F81
:100B80009A95EAF701C084E0822B809368002C8557
:100B9000283038F02E3040F0263148F48CE690E0D2
:100BA00008C08DE690E005C08BE690E002C080E0D2
:100BB00090E09C8B8B8B283030F481E001C0880F53
:100BC0002A95EAF70DC0822F90E02E3010F4089796
:100BD00001C00E9791E001C0990F8A95EAF7892F1D
:100BE0008D8B8C8D9D8D0197F1F7CE01DF91CF918B
:100BF00050CE833081F028F4813099F08230A1F01A
:100C000008958730A9F08830B9F08430D1F480910C
:100C100080008F7D03C0809180008F77809380005B
:100C2000089584B58F7702C084B58F7D84BD089503
:100C30008091B0008F7703C08091B0008F7D80934A
:100C4000B0000895CF93DF9390E0FC01E458FF4F8C
:100C50002491FC01E057FF4F8491882349F190E0F3
:100C6000880F991FFC01E854FF4FA591B49182555C
:100C70009F4FFC01C591D4919FB7611108C0F894B2
:100C80008C91209582238C93888182230AC06230C4
:100C900051F4F8948C91322F309583238C93888172
:100CA000822B888304C0F8948C91822B8C939FBFF5
:100CB000DF91CF9108950F931F93CF93DF931F92EE
:100CC000CDB7DEB7282F30E0F901E859FF4F849106
:100CD000F901E458FF4F1491F901E057FF4F0491D7
:100CE0000023C1F0882319F0698383DF6981E02F35
:100CF000F0E0EE0FFF1FE255FF4FA591B4919FB7B3
:100D0000F8948C91611103C01095812301C0812B4F
:100D10008C939FBF0F90DF91CF911F910F910895FA
:100D200097FB072E16F4009406D077FD08D049D023
:100D300007FC05D03EF4909581959F4F08957095DE
:100D400061957F4F0895A1E21A2EAA1BBB1BFD01DE
:100D50000DC0AA1FBB1FEE1FFF1FA217B307E4079A
:100D6000F50720F0A21BB30BE40BF50B661F771FF2
:100D7000881F991F1A9469F76095709580959095D2
:100D80009B01AC01BD01CF010895052E97FB16F420
:100D900000940FD057FD05D0D6DF07FC02D046F4F3
:100DA00008C050954095309521953F4F4F4F5F4F6C
:100DB000089590958095709561957F4F8F4F9F4FC7
:100DC0000895AA1BBB1B51E107C0AA1FBB1FA61792
:100DD000B70710F0A61BB70B881F991F5A95A9F7E4
:100DE00080959095BC01CD010895EE0FFF1F0590F1
:100DF000F491E02D099410E0C6ECD0E003C0FE01B0
:0E0E0000F6DF2296C83CD107D1F7F894FFCF59
:100E0E005B4A61727669735D2054656C65496E66E6
:100E1E006F00000000003901A002BD00D600C8001E
:100E2E0018010D0A006E616E00696E66006F7666BF
:100E3E00002E0000000000A203A0020E048103F4A5
:040E4E000324040075
:00000001FF
